{
  "contractName": "Coinflip",
  "abi": [
    {
      "inputs": [],
      "payable": false,
      "stateMutability": "nonpayable",
      "type": "constructor"
    },
    {
      "anonymous": false,
      "inputs": [
        {
          "indexed": false,
          "internalType": "string",
          "name": "description",
          "type": "string"
        }
      ],
      "name": "LogNewProvableQuery",
      "type": "event"
    },
    {
      "anonymous": false,
      "inputs": [
        {
          "indexed": false,
          "internalType": "uint256",
          "name": "betAmount",
          "type": "uint256"
        }
      ],
      "name": "betTaken",
      "type": "event"
    },
    {
      "anonymous": false,
      "inputs": [
        {
          "indexed": false,
          "internalType": "uint256",
          "name": "result",
          "type": "uint256"
        }
      ],
      "name": "coinFlipped",
      "type": "event"
    },
    {
      "anonymous": false,
      "inputs": [
        {
          "indexed": false,
          "internalType": "uint256",
          "name": "randomNumber",
          "type": "uint256"
        }
      ],
      "name": "generateRandomNumber",
      "type": "event"
    },
    {
      "anonymous": false,
      "inputs": [
        {
          "indexed": false,
          "internalType": "uint256",
          "name": "betAmount",
          "type": "uint256"
        }
      ],
      "name": "winPayout",
      "type": "event"
    },
    {
      "constant": true,
      "inputs": [],
      "name": "balance",
      "outputs": [
        {
          "internalType": "uint256",
          "name": "",
          "type": "uint256"
        }
      ],
      "payable": false,
      "stateMutability": "view",
      "type": "function"
    },
    {
      "constant": true,
      "inputs": [],
      "name": "latestNumber",
      "outputs": [
        {
          "internalType": "uint256",
          "name": "",
          "type": "uint256"
        }
      ],
      "payable": false,
      "stateMutability": "view",
      "type": "function"
    },
    {
      "constant": true,
      "inputs": [],
      "name": "owner",
      "outputs": [
        {
          "internalType": "address",
          "name": "",
          "type": "address"
        }
      ],
      "payable": false,
      "stateMutability": "view",
      "type": "function"
    },
    {
      "constant": false,
      "inputs": [
        {
          "internalType": "bytes32",
          "name": "_myid",
          "type": "bytes32"
        },
        {
          "internalType": "string",
          "name": "_result",
          "type": "string"
        }
      ],
      "name": "__callback",
      "outputs": [],
      "payable": false,
      "stateMutability": "nonpayable",
      "type": "function"
    },
    {
      "constant": false,
      "inputs": [
        {
          "internalType": "bytes32",
          "name": "queryId",
          "type": "bytes32"
        },
        {
          "internalType": "string",
          "name": "_result",
          "type": "string"
        },
        {
          "internalType": "bytes",
          "name": "_proof",
          "type": "bytes"
        }
      ],
      "name": "__callback",
      "outputs": [],
      "payable": false,
      "stateMutability": "nonpayable",
      "type": "function"
    },
    {
      "constant": false,
      "inputs": [],
      "name": "update",
      "outputs": [],
      "payable": true,
      "stateMutability": "payable",
      "type": "function"
    },
    {
      "constant": true,
      "inputs": [],
      "name": "getLatestRandom",
      "outputs": [
        {
          "internalType": "uint256",
          "name": "",
          "type": "uint256"
        }
      ],
      "payable": false,
      "stateMutability": "view",
      "type": "function"
    },
    {
      "constant": false,
      "inputs": [],
      "name": "addContractFunds",
      "outputs": [],
      "payable": true,
      "stateMutability": "payable",
      "type": "function"
    },
    {
      "constant": false,
      "inputs": [],
      "name": "intakeToken",
      "outputs": [],
      "payable": true,
      "stateMutability": "payable",
      "type": "function"
    },
    {
      "constant": false,
      "inputs": [],
      "name": "flipCoin",
      "outputs": [
        {
          "internalType": "uint256",
          "name": "",
          "type": "uint256"
        }
      ],
      "payable": true,
      "stateMutability": "payable",
      "type": "function"
    },
    {
      "constant": false,
      "inputs": [],
      "name": "handleWinPayout",
      "outputs": [],
      "payable": true,
      "stateMutability": "payable",
      "type": "function"
    },
    {
      "constant": true,
      "inputs": [],
      "name": "random",
      "outputs": [
        {
          "internalType": "uint256",
          "name": "",
          "type": "uint256"
        }
      ],
      "payable": false,
      "stateMutability": "view",
      "type": "function"
    }
  ],
  "bytecode": "0x60806040523480156200001157600080fd5b5033600560006101000a81548173ffffffffffffffffffffffffffffffffffffffff021916908373ffffffffffffffffffffffffffffffffffffffff160217905550620000636200006960201b60201c565b62001f89565b6000809050600062030d4090506200008a82600183620000db60201b60201c565b507fc4dc360d0a9c0677a3379ae0a3d81e887f761e65fdf3d7e00859d1bcd3c47389604051808060200182810382526032815260200180620049446032913960400191505060405180910390a15050565b60008083118015620000ee575060208311155b620000f857600080fd5b600a84029350606060016040519080825280601f01601f191660200182016040528015620001355781602001600182028038833980820191505090505b5090508360f81b816000815181106200014a57fe5b60200101907effffffffffffffffffffffffffffffffffffffffffffffffffffffffffffff1916908160001a905350606060206040519080825280601f01601f191660200182016040528015620001b05781602001600182028038833980820191505090505b509050606060206040519080825280601f01601f191660200182016040528015620001ea5781602001600182028038833980820191505090505b5090506000620001ff620006ae60201b60201c565b905060208352424118600143034018602084015260208252806020830152606060206040519080825280601f01601f191660200182016040528015620002545781602001600182028038833980820191505090505b509050886020820152606060086040519080825280601f01601f191660200182016040528015620002945781602001600182028038833980820191505090505b509050620002af8260186008846000620009e760201b60201c565b50620002ba62001e98565b60405180608001604052808781526020018881526020018681526020018481525090506000620003276040518060400160405280600681526020017f72616e646f6d0000000000000000000000000000000000000000000000000000815250838c62000a4960201b60201c565b9050606060086040519080825280601f01601f191660200182016040528015620003605781602001600182028038833980820191505090505b50905060208401517f0100000000000000000000000000000000000000000000000000000000000000810460278301537e01000000000000000000000000000000000000000000000000000000000000810460268301537d010000000000000000000000000000000000000000000000000000000000810460258301537c0100000000000000000000000000000000000000000000000000000000810460248301537b01000000000000000000000000000000000000000000000000000000810460238301537a0100000000000000000000000000000000000000000000000000008104602283015379010000000000000000000000000000000000000000000000000081046021830153780100000000000000000000000000000000000000000000000081046020830153506200069b828285600160048110620004a157fe5b6020020151600287600060048110620004b657fe5b60200201516040518082805190602001908083835b60208310620004f05780518252602082019150602081019050602083039250620004cb565b6001836020036101000a038019825116818451168082178552505050505050905001915050602060405180830381855afa15801562000533573d6000803e3d6000fd5b5050506040513d60208110156200054957600080fd5b8101908080519060200190929190505050876002600481106200056857fe5b60200201516040516020018085805190602001908083835b60208310620005a5578051825260208201915060208101905060208303925062000580565b6001836020036101000a03801982511681845116808217855250505050505090500184805190602001908083835b60208310620005f85780518252602082019150602081019050602083039250620005d3565b6001836020036101000a03801982511681845116808217855250505050505090500183815260200182805190602001908083835b602083106200065157805182526020820191506020810190506020830392506200062c565b6001836020036101000a0380198251168184511680821785525050505050509050019450505050506040516020818303038152906040528051906020012062000de160201b60201c565b8199505050505050505050509392505050565b60008073ffffffffffffffffffffffffffffffffffffffff16600160009054906101000a900473ffffffffffffffffffffffffffffffffffffffff1673ffffffffffffffffffffffffffffffffffffffff1614806200073f575060006200073d600160009054906101000a900473ffffffffffffffffffffffffffffffffffffffff1662000dfd60201b60201c565b145b15620007595762000757600062000e0860201b60201c565b505b600160009054906101000a900473ffffffffffffffffffffffffffffffffffffffff1673ffffffffffffffffffffffffffffffffffffffff166338cc48316040518163ffffffff1660e01b8152600401602060405180830381600087803b158015620007c457600080fd5b505af1158015620007d9573d6000803e3d6000fd5b505050506040513d6020811015620007f057600080fd5b810190808051906020019092919050505073ffffffffffffffffffffffffffffffffffffffff166000809054906101000a900473ffffffffffffffffffffffffffffffffffffffff1673ffffffffffffffffffffffffffffffffffffffff16146200093d57600160009054906101000a900473ffffffffffffffffffffffffffffffffffffffff1673ffffffffffffffffffffffffffffffffffffffff166338cc48316040518163ffffffff1660e01b8152600401602060405180830381600087803b158015620008c057600080fd5b505af1158015620008d5573d6000803e3d6000fd5b505050506040513d6020811015620008ec57600080fd5b81019080805190602001909291905050506000806101000a81548173ffffffffffffffffffffffffffffffffffffffff021916908373ffffffffffffffffffffffffffffffffffffffff1602179055505b6000809054906101000a900473ffffffffffffffffffffffffffffffffffffffff1673ffffffffffffffffffffffffffffffffffffffff1663abaa5f3e6040518163ffffffff1660e01b815260040160206040518083038186803b158015620009a557600080fd5b505afa158015620009ba573d6000803e3d6000fd5b505050506040513d6020811015620009d157600080fd5b8101908080519060200190929190505050905090565b6060600082850190508084511015620009ff57600080fd5b600086602001905060008460200190505b86886020010182101562000a3a578189015180828801525060208201915060208101905062000a10565b85935050505095945050505050565b60008073ffffffffffffffffffffffffffffffffffffffff16600160009054906101000a900473ffffffffffffffffffffffffffffffffffffffff1673ffffffffffffffffffffffffffffffffffffffff16148062000ada5750600062000ad8600160009054906101000a900473ffffffffffffffffffffffffffffffffffffffff1662000dfd60201b60201c565b145b1562000af45762000af2600062000e0860201b60201c565b505b600160009054906101000a900473ffffffffffffffffffffffffffffffffffffffff1673ffffffffffffffffffffffffffffffffffffffff166338cc48316040518163ffffffff1660e01b8152600401602060405180830381600087803b15801562000b5f57600080fd5b505af115801562000b74573d6000803e3d6000fd5b505050506040513d602081101562000b8b57600080fd5b810190808051906020019092919050505073ffffffffffffffffffffffffffffffffffffffff166000809054906101000a900473ffffffffffffffffffffffffffffffffffffffff1673ffffffffffffffffffffffffffffffffffffffff161462000cd857600160009054906101000a900473ffffffffffffffffffffffffffffffffffffffff1673ffffffffffffffffffffffffffffffffffffffff166338cc48316040518163ffffffff1660e01b8152600401602060405180830381600087803b15801562000c5b57600080fd5b505af115801562000c70573d6000803e3d6000fd5b505050506040513d602081101562000c8757600080fd5b81019080805190602001909291905050506000806101000a81548173ffffffffffffffffffffffffffffffffffffffff021916908373ffffffffffffffffffffffffffffffffffffffff1602179055505b6060600460405190808252806020026020018201604052801562000d1157816020015b606081526020019060019003908162000cfb5790505b5090508360006004811062000d2257fe5b60200201518160008151811062000d3557fe5b60200260200101819052508360016004811062000d4e57fe5b60200201518160018151811062000d6157fe5b60200260200101819052508360026004811062000d7a57fe5b60200201518160028151811062000d8d57fe5b60200260200101819052508360036004811062000da657fe5b60200201518160038151811062000db957fe5b602002602001018190525062000dd785828562000e2160201b60201c565b9150509392505050565b8060036000848152602001908152602001600020819055505050565b6000813b9050919050565b600062000e1a620013b560201b60201c565b9050919050565b60008073ffffffffffffffffffffffffffffffffffffffff16600160009054906101000a900473ffffffffffffffffffffffffffffffffffffffff1673ffffffffffffffffffffffffffffffffffffffff16148062000eb25750600062000eb0600160009054906101000a900473ffffffffffffffffffffffffffffffffffffffff1662000dfd60201b60201c565b145b1562000ecc5762000eca600062000e0860201b60201c565b505b600160009054906101000a900473ffffffffffffffffffffffffffffffffffffffff1673ffffffffffffffffffffffffffffffffffffffff166338cc48316040518163ffffffff1660e01b8152600401602060405180830381600087803b15801562000f3757600080fd5b505af115801562000f4c573d6000803e3d6000fd5b505050506040513d602081101562000f6357600080fd5b810190808051906020019092919050505073ffffffffffffffffffffffffffffffffffffffff166000809054906101000a900473ffffffffffffffffffffffffffffffffffffffff1673ffffffffffffffffffffffffffffffffffffffff1614620010b057600160009054906101000a900473ffffffffffffffffffffffffffffffffffffffff1673ffffffffffffffffffffffffffffffffffffffff166338cc48316040518163ffffffff1660e01b8152600401602060405180830381600087803b1580156200103357600080fd5b505af115801562001048573d6000803e3d6000fd5b505050506040513d60208110156200105f57600080fd5b81019080805190602001909291905050506000806101000a81548173ffffffffffffffffffffffffffffffffffffffff021916908373ffffffffffffffffffffffffffffffffffffffff1602179055505b60008060009054906101000a900473ffffffffffffffffffffffffffffffffffffffff1673ffffffffffffffffffffffffffffffffffffffff16632ef3accc86856040518363ffffffff1660e01b81526004018080602001838152602001828103825284818151815260200191508051906020019080838360005b83811015620011485780820151818401526020810190506200112b565b50505050905090810190601f168015620011765780820380516001836020036101000a031916815260200191505b509350505050602060405180830381600087803b1580156200119757600080fd5b505af1158015620011ac573d6000803e3d6000fd5b505050506040513d6020811015620011c357600080fd5b81019080805190602001909291905050509050823a02670de0b6b3a764000001811115620011f8576000801b915050620013ae565b60606200120b856200198460201b60201c565b90506000809054906101000a900473ffffffffffffffffffffffffffffffffffffffff1673ffffffffffffffffffffffffffffffffffffffff1663c55c1cb68360008985896040518663ffffffff1660e01b8152600401808581526020018060200180602001848152602001838103835286818151815260200191508051906020019080838360005b83811015620012b157808201518184015260208101905062001294565b50505050905090810190601f168015620012df5780820380516001836020036101000a031916815260200191505b50838103825285818151815260200191508051906020019080838360005b838110156200131a578082015181840152602081019050620012fd565b50505050905090810190601f168015620013485780820380516001836020036101000a031916815260200191505b5096505050505050506020604051808303818588803b1580156200136b57600080fd5b505af115801562001380573d6000803e3d6000fd5b50505050506040513d60208110156200139857600080fd5b8101908080519060200190929190505050925050505b9392505050565b600080620013dd731d3b2638a7cc9f2cb3d298a3da7a90b67e5506ed62000dfd60201b60201c565b11156200148957731d3b2638a7cc9f2cb3d298a3da7a90b67e5506ed600160006101000a81548173ffffffffffffffffffffffffffffffffffffffff021916908373ffffffffffffffffffffffffffffffffffffffff1602179055506200147f6040518060400160405280600b81526020017f6574685f6d61696e6e657400000000000000000000000000000000000000000081525062001a3f60201b60201c565b6001905062001981565b6000620014b073c03a2615d5efaf5f49f60b7bb6583eaec212fdf162000dfd60201b60201c565b11156200155c5773c03a2615d5efaf5f49f60b7bb6583eaec212fdf1600160006101000a81548173ffffffffffffffffffffffffffffffffffffffff021916908373ffffffffffffffffffffffffffffffffffffffff160217905550620015526040518060400160405280600c81526020017f6574685f726f707374656e33000000000000000000000000000000000000000081525062001a3f60201b60201c565b6001905062001981565b60006200158373b7a07bcf2ba2f2703b24c0691b5278999c59ac7e62000dfd60201b60201c565b11156200162f5773b7a07bcf2ba2f2703b24c0691b5278999c59ac7e600160006101000a81548173ffffffffffffffffffffffffffffffffffffffff021916908373ffffffffffffffffffffffffffffffffffffffff160217905550620016256040518060400160405280600981526020017f6574685f6b6f76616e000000000000000000000000000000000000000000000081525062001a3f60201b60201c565b6001905062001981565b60006200165673146500cfd35b22e4a392fe0adc06de1a1368ed4862000dfd60201b60201c565b1115620017025773146500cfd35b22e4a392fe0adc06de1a1368ed48600160006101000a81548173ffffffffffffffffffffffffffffffffffffffff021916908373ffffffffffffffffffffffffffffffffffffffff160217905550620016f86040518060400160405280600b81526020017f6574685f72696e6b65627900000000000000000000000000000000000000000081525062001a3f60201b60201c565b6001905062001981565b60006200172973a2998efd205fb9d4b4963afb70778d6354ad3a4162000dfd60201b60201c565b1115620017d55773a2998efd205fb9d4b4963afb70778d6354ad3a41600160006101000a81548173ffffffffffffffffffffffffffffffffffffffff021916908373ffffffffffffffffffffffffffffffffffffffff160217905550620017cb6040518060400160405280600a81526020017f6574685f676f65726c690000000000000000000000000000000000000000000081525062001a3f60201b60201c565b6001905062001981565b6000620017fc736f485c8bf6fc43ea212e93bbf8ce046c7f1cb47562000dfd60201b60201c565b11156200186257736f485c8bf6fc43ea212e93bbf8ce046c7f1cb475600160006101000a81548173ffffffffffffffffffffffffffffffffffffffff021916908373ffffffffffffffffffffffffffffffffffffffff1602179055506001905062001981565b6000620018897320e12a1f859b3feae5fb2a0a32c18f5a65555bbf62000dfd60201b60201c565b1115620018ef577320e12a1f859b3feae5fb2a0a32c18f5a65555bbf600160006101000a81548173ffffffffffffffffffffffffffffffffffffffff021916908373ffffffffffffffffffffffffffffffffffffffff1602179055506001905062001981565b6000620019167351efaf4c8b3c9afbd5ab9f4bbc82784ab6ef8faa62000dfd60201b60201c565b11156200197c577351efaf4c8b3c9afbd5ab9f4bbc82784ab6ef8faa600160006101000a81548173ffffffffffffffffffffffffffffffffffffffff021916908373ffffffffffffffffffffffffffffffffffffffff1602179055506001905062001981565b600090505b90565b60606200199662001a5b60201b60201c565b620019a062001ec0565b620019b98161040062001a6760201b620024ce1760201c565b620019cf8162001ab460201b620025181760201c565b60008090505b835181101562001a1b5762001a0d848281518110620019f057fe5b60200260200101518362001aca60201b620025261790919060201c565b8080600101915050620019d5565b5062001a328162001afe60201b6200254b1760201c565b8060000151915050919050565b806002908051906020019062001a5792919062001eda565b5050565b60405180590338823950565b600081905060006020828162001a7957fe5b061462001a94576020818162001a8b57fe5b06602003810190505b808360200181815250506040518084526000815281810160405250505050565b62001ac781600462001b1460201b60201c565b50565b62001adf826002835162001b3c60201b60201c565b62001af9818362001cc460201b620026ba1790919060201c565b505050565b62001b1181600762001b1460201b60201c565b50565b62001b38601f60058360ff16901b178362001d8460201b620027651790919060201c565b5050565b6017811162001b715762001b6b8160058460ff16901b60ff16178462001d8460201b620027651790919060201c565b62001cbf565b60ff811162001bc25762001b9e601860058460ff16901b178462001d8460201b620027651790919060201c565b62001bbb8160018562001dcd60201b620027a5179092919060201c565b5062001cbe565b61ffff811162001c145762001bf0601960058460ff16901b178462001d8460201b620027651790919060201c565b62001c0d8160028562001dcd60201b620027a5179092919060201c565b5062001cbd565b63ffffffff811162001c685762001c44601a60058460ff16901b178462001d8460201b620027651790919060201c565b62001c618160048562001dcd60201b620027a5179092919060201c565b5062001cbc565b67ffffffffffffffff811162001cbb5762001c9c601b60058460ff16901b178462001d8460201b620027651790919060201c565b62001cb98160088562001dcd60201b620027a5179092919060201c565b505b5b5b5b5b505050565b62001cce62001ec0565b8260200151836000015151835101111562001d0f5762001d0e83600262001d018660200151865162001e4760201b60201c565b0262001e6560201b60201c565b5b60008060008451905085518051602081830101945086518101825260208701935050505b6020811062001d58578151835260208301925060208201915060208103905062001d33565b60006001826020036101000a039050801983511681855116818117865250508694505050505092915050565b8160200151600183600001515101111562001db35762001db282600284602001510262001e6560201b60201c565b5b815180516020818301018381536001820183525050505050565b62001dd762001ec0565b83602001518460000151518301111562001e165762001e1584600262001e0887602001518662001e4760201b60201c565b0262001e6560201b60201c565b5b60006001836101000a0390508451805184818301018684198251161781528582018352505050849150509392505050565b60008183111562001e5b5782905062001e5f565b8190505b92915050565b60608260000151905062001e80838362001a6760201b60201c565b62001e92838262001cc460201b60201c565b50505050565b60405180608001604052806004905b606081526020019060019003908162001ea75790505090565b604051806040016040528060608152602001600081525090565b828054600181600116156101000203166002900490600052602060002090601f016020900481019282601f1062001f1d57805160ff191683800117855562001f4e565b8280016001018555821562001f4e579182015b8281111562001f4d57825182559160200191906001019062001f30565b5b50905062001f5d919062001f61565b5090565b62001f8691905b8082111562001f8257600081600090555060010162001f68565b5090565b90565b6129ab8062001f996000396000f3fe6080604052600436106100a65760003560e01c8063a2e6204511610064578063a2e6204514610390578063b69ef8a81461039a578063c099eb8b146103c5578063c2ea1235146103f0578063dbef7881146103fa578063dc34b0aa14610404576100a6565b80628b8d89146100ab57806327dc297e146100b557806338bbfa50146101875780635ec01e4d146102f0578063799ae2231461031b5780638da5cb5b14610339575b600080fd5b6100b361042f565b005b3480156100c157600080fd5b50610185600480360360408110156100d857600080fd5b8101908080359060200190929190803590602001906401000000008111156100ff57600080fd5b82018360208201111561011157600080fd5b8035906020019184600183028401116401000000008311171561013357600080fd5b91908080601f016020809104026020016040519081016040528093929190818152602001838380828437600081840152601f19601f82011690508083019250505050505050919291929050505061049b565b005b34801561019357600080fd5b506102ee600480360360608110156101aa57600080fd5b8101908080359060200190929190803590602001906401000000008111156101d157600080fd5b8201836020820111156101e357600080fd5b8035906020019184600183028401116401000000008311171561020557600080fd5b91908080601f016020809104026020016040519081016040528093929190818152602001838380828437600081840152601f19601f8201169050808301925050505050505091929192908035906020019064010000000081111561026857600080fd5b82018360208201111561027a57600080fd5b8035906020019184600183028401116401000000008311171561029c57600080fd5b91908080601f016020809104026020016040519081016040528093929190818152602001838380828437600081840152601f19601f8201169050808301925050505050505091929192905050506104de565b005b3480156102fc57600080fd5b506103056105e4565b6040518082815260200191505060405180910390f35b6103236105f6565b6040518082815260200191505060405180910390f35b34801561034557600080fd5b5061034e610657565b604051808273ffffffffffffffffffffffffffffffffffffffff1673ffffffffffffffffffffffffffffffffffffffff16815260200191505060405180910390f35b61039861067d565b005b3480156103a657600080fd5b506103af6106e6565b6040518082815260200191505060405180910390f35b3480156103d157600080fd5b506103da6106ec565b6040518082815260200191505060405180910390f35b6103f86106f6565b005b610402610863565b005b34801561041057600080fd5b50610419610946565b6040518082815260200191505060405180910390f35b600560009054906101000a900473ffffffffffffffffffffffffffffffffffffffff1673ffffffffffffffffffffffffffffffffffffffff163373ffffffffffffffffffffffffffffffffffffffff161461048957600080fd5b34600660008282540192505081905550565b6104da828260006040519080825280601f01601f1916602001820160405280156104d45781602001600182028038833980820191505090505b506104de565b5050565b6104e661094c565b73ffffffffffffffffffffffffffffffffffffffff163373ffffffffffffffffffffffffffffffffffffffff161461051d57600080fd5b60006002836040516020018082805190602001908083835b602083106105585780518252602082019150602081019050602083039250610535565b6001836020036101000a0380198251168184511680821785525050505050509050019150506040516020818303038152906040528051906020012060001c8161059d57fe5b069050806007819055507f4303707e98d7b86c6197a2b41914fc650bc708c7d3111930f2ec8ee7cf1cf394816040518082815260200191505060405180910390a150505050565b6000600242816105f057fe5b06905090565b600061060061067d565b600060075490507fdd9e2bb02715082d7ad3303c337c653141faddaa5690c22930da715c8361dbfd816040518082815260200191505060405180910390a160008114156106505761064f6106f6565b5b8091505090565b600560009054906101000a900473ffffffffffffffffffffffffffffffffffffffff1681565b6000809050600062030d40905061069682600183610c69565b507fc4dc360d0a9c0677a3379ae0a3d81e887f761e65fdf3d7e00859d1bcd3c473896040518080602001828103825260328152602001806129456032913960400191505060405180910390a15050565b60065481565b6000600754905090565b6002600860003373ffffffffffffffffffffffffffffffffffffffff1673ffffffffffffffffffffffffffffffffffffffff168152602001908152602001600020600001540260066000828254039250508190555060006002600860003373ffffffffffffffffffffffffffffffffffffffff1673ffffffffffffffffffffffffffffffffffffffff168152602001908152602001600020600001540290503373ffffffffffffffffffffffffffffffffffffffff166108fc829081150290604051600060405180830381858888f193505050501580156107db573d6000803e3d6000fd5b507f6d5dfd4450d88fa47ae72d01e73d5d06bc879cfbcc4729546001eeba2fa3bef86002600860003373ffffffffffffffffffffffffffffffffffffffff1673ffffffffffffffffffffffffffffffffffffffff16815260200190815260200160002060000154026040518082815260200191505060405180910390a1610860611204565b50565b60018034101561087257600080fd5b600134101561088057600080fd5b60023402600654101561089257600080fd5b346006600082825401925050819055506108aa61284b565b34816000018181525050600033905081600860008373ffffffffffffffffffffffffffffffffffffffff1673ffffffffffffffffffffffffffffffffffffffff168152602001908152602001600020600082015181600001559050507fc50cc62dfeab96437c942921e56f50c5ceae59756046dd42a47823f1b5c5d23882600001516040518082815260200191505060405180910390a1505050565b60075481565b60008073ffffffffffffffffffffffffffffffffffffffff16600160009054906101000a900473ffffffffffffffffffffffffffffffffffffffff1673ffffffffffffffffffffffffffffffffffffffff1614806109d4575060006109d2600160009054906101000a900473ffffffffffffffffffffffffffffffffffffffff1661124e565b145b156109e5576109e36000611259565b505b600160009054906101000a900473ffffffffffffffffffffffffffffffffffffffff1673ffffffffffffffffffffffffffffffffffffffff166338cc48316040518163ffffffff1660e01b8152600401602060405180830381600087803b158015610a4f57600080fd5b505af1158015610a63573d6000803e3d6000fd5b505050506040513d6020811015610a7957600080fd5b810190808051906020019092919050505073ffffffffffffffffffffffffffffffffffffffff166000809054906101000a900473ffffffffffffffffffffffffffffffffffffffff1673ffffffffffffffffffffffffffffffffffffffff1614610bc257600160009054906101000a900473ffffffffffffffffffffffffffffffffffffffff1673ffffffffffffffffffffffffffffffffffffffff166338cc48316040518163ffffffff1660e01b8152600401602060405180830381600087803b158015610b4757600080fd5b505af1158015610b5b573d6000803e3d6000fd5b505050506040513d6020811015610b7157600080fd5b81019080805190602001909291905050506000806101000a81548173ffffffffffffffffffffffffffffffffffffffff021916908373ffffffffffffffffffffffffffffffffffffffff1602179055505b6000809054906101000a900473ffffffffffffffffffffffffffffffffffffffff1673ffffffffffffffffffffffffffffffffffffffff1663c281d19e6040518163ffffffff1660e01b815260040160206040518083038186803b158015610c2957600080fd5b505afa158015610c3d573d6000803e3d6000fd5b505050506040513d6020811015610c5357600080fd5b8101908080519060200190929190505050905090565b60008083118015610c7b575060208311155b610c8457600080fd5b600a84029350606060016040519080825280601f01601f191660200182016040528015610cc05781602001600182028038833980820191505090505b5090508360f81b81600081518110610cd457fe5b60200101907effffffffffffffffffffffffffffffffffffffffffffffffffffffffffffff1916908160001a905350606060206040519080825280601f01601f191660200182016040528015610d395781602001600182028038833980820191505090505b509050606060206040519080825280601f01601f191660200182016040528015610d725781602001600182028038833980820191505090505b5090506000610d7f61126a565b905060208352424118600143034018602084015260208252806020830152606060206040519080825280601f01601f191660200182016040528015610dd35781602001600182028038833980820191505090505b509050886020820152606060086040519080825280601f01601f191660200182016040528015610e125781602001600182028038833980820191505090505b509050610e258260186008846000611587565b50610e2e61285e565b60405180608001604052808781526020018881526020018681526020018481525090506000610e936040518060400160405280600681526020017f72616e646f6d0000000000000000000000000000000000000000000000000000815250838c6115e6565b9050606060086040519080825280601f01601f191660200182016040528015610ecb5781602001600182028038833980820191505090505b50905060208401517f0100000000000000000000000000000000000000000000000000000000000000810460278301537e01000000000000000000000000000000000000000000000000000000000000810460268301537d010000000000000000000000000000000000000000000000000000000000810460258301537c0100000000000000000000000000000000000000000000000000000000810460248301537b01000000000000000000000000000000000000000000000000000000810460238301537a0100000000000000000000000000000000000000000000000000008104602283015379010000000000000000000000000000000000000000000000000081046021830153780100000000000000000000000000000000000000000000000081046020830153506111f182828560016004811061100a57fe5b602002015160028760006004811061101e57fe5b60200201516040518082805190602001908083835b602083106110565780518252602082019150602081019050602083039250611033565b6001836020036101000a038019825116818451168082178552505050505050905001915050602060405180830381855afa158015611098573d6000803e3d6000fd5b5050506040513d60208110156110ad57600080fd5b8101908080519060200190929190505050876002600481106110cb57fe5b60200201516040516020018085805190602001908083835b6020831061110657805182526020820191506020810190506020830392506110e3565b6001836020036101000a03801982511681845116808217855250505050505090500184805190602001908083835b602083106111575780518252602082019150602081019050602083039250611134565b6001836020036101000a03801982511681845116808217855250505050505090500183815260200182805190602001908083835b602083106111ae578051825260208201915060208101905060208303925061118b565b6001836020036101000a03801982511681845116808217855250505050505090500194505050505060405160208183030381529060405280519060200120611953565b8199505050505050505050509392505050565b6000600860003373ffffffffffffffffffffffffffffffffffffffff1673ffffffffffffffffffffffffffffffffffffffff16815260200190815260200160002060000181905550565b6000813b9050919050565b600061126361196f565b9050919050565b60008073ffffffffffffffffffffffffffffffffffffffff16600160009054906101000a900473ffffffffffffffffffffffffffffffffffffffff1673ffffffffffffffffffffffffffffffffffffffff1614806112f2575060006112f0600160009054906101000a900473ffffffffffffffffffffffffffffffffffffffff1661124e565b145b15611303576113016000611259565b505b600160009054906101000a900473ffffffffffffffffffffffffffffffffffffffff1673ffffffffffffffffffffffffffffffffffffffff166338cc48316040518163ffffffff1660e01b8152600401602060405180830381600087803b15801561136d57600080fd5b505af1158015611381573d6000803e3d6000fd5b505050506040513d602081101561139757600080fd5b810190808051906020019092919050505073ffffffffffffffffffffffffffffffffffffffff166000809054906101000a900473ffffffffffffffffffffffffffffffffffffffff1673ffffffffffffffffffffffffffffffffffffffff16146114e057600160009054906101000a900473ffffffffffffffffffffffffffffffffffffffff1673ffffffffffffffffffffffffffffffffffffffff166338cc48316040518163ffffffff1660e01b8152600401602060405180830381600087803b15801561146557600080fd5b505af1158015611479573d6000803e3d6000fd5b505050506040513d602081101561148f57600080fd5b81019080805190602001909291905050506000806101000a81548173ffffffffffffffffffffffffffffffffffffffff021916908373ffffffffffffffffffffffffffffffffffffffff1602179055505b6000809054906101000a900473ffffffffffffffffffffffffffffffffffffffff1673ffffffffffffffffffffffffffffffffffffffff1663abaa5f3e6040518163ffffffff1660e01b815260040160206040518083038186803b15801561154757600080fd5b505afa15801561155b573d6000803e3d6000fd5b505050506040513d602081101561157157600080fd5b8101908080519060200190929190505050905090565b606060008285019050808451101561159e57600080fd5b600086602001905060008460200190505b8688602001018210156115d757818901518082880152506020820191506020810190506115af565b85935050505095945050505050565b60008073ffffffffffffffffffffffffffffffffffffffff16600160009054906101000a900473ffffffffffffffffffffffffffffffffffffffff1673ffffffffffffffffffffffffffffffffffffffff16148061166e5750600061166c600160009054906101000a900473ffffffffffffffffffffffffffffffffffffffff1661124e565b145b1561167f5761167d6000611259565b505b600160009054906101000a900473ffffffffffffffffffffffffffffffffffffffff1673ffffffffffffffffffffffffffffffffffffffff166338cc48316040518163ffffffff1660e01b8152600401602060405180830381600087803b1580156116e957600080fd5b505af11580156116fd573d6000803e3d6000fd5b505050506040513d602081101561171357600080fd5b810190808051906020019092919050505073ffffffffffffffffffffffffffffffffffffffff166000809054906101000a900473ffffffffffffffffffffffffffffffffffffffff1673ffffffffffffffffffffffffffffffffffffffff161461185c57600160009054906101000a900473ffffffffffffffffffffffffffffffffffffffff1673ffffffffffffffffffffffffffffffffffffffff166338cc48316040518163ffffffff1660e01b8152600401602060405180830381600087803b1580156117e157600080fd5b505af11580156117f5573d6000803e3d6000fd5b505050506040513d602081101561180b57600080fd5b81019080805190602001909291905050506000806101000a81548173ffffffffffffffffffffffffffffffffffffffff021916908373ffffffffffffffffffffffffffffffffffffffff1602179055505b6060600460405190808252806020026020018201604052801561189357816020015b606081526020019060019003908161187e5790505b509050836000600481106118a357fe5b6020020151816000815181106118b557fe5b6020026020010181905250836001600481106118cd57fe5b6020020151816001815181106118df57fe5b6020026020010181905250836002600481106118f757fe5b60200201518160028151811061190957fe5b60200260200101819052508360036004811061192157fe5b60200201518160038151811061193357fe5b6020026020010181905250611949858285611ec6565b9150509392505050565b8060036000848152602001908152602001600020819055505050565b60008061198f731d3b2638a7cc9f2cb3d298a3da7a90b67e5506ed61124e565b1115611a3157731d3b2638a7cc9f2cb3d298a3da7a90b67e5506ed600160006101000a81548173ffffffffffffffffffffffffffffffffffffffff021916908373ffffffffffffffffffffffffffffffffffffffff160217905550611a286040518060400160405280600b81526020017f6574685f6d61696e6e6574000000000000000000000000000000000000000000815250612428565b60019050611ec3565b6000611a5073c03a2615d5efaf5f49f60b7bb6583eaec212fdf161124e565b1115611af25773c03a2615d5efaf5f49f60b7bb6583eaec212fdf1600160006101000a81548173ffffffffffffffffffffffffffffffffffffffff021916908373ffffffffffffffffffffffffffffffffffffffff160217905550611ae96040518060400160405280600c81526020017f6574685f726f707374656e330000000000000000000000000000000000000000815250612428565b60019050611ec3565b6000611b1173b7a07bcf2ba2f2703b24c0691b5278999c59ac7e61124e565b1115611bb35773b7a07bcf2ba2f2703b24c0691b5278999c59ac7e600160006101000a81548173ffffffffffffffffffffffffffffffffffffffff021916908373ffffffffffffffffffffffffffffffffffffffff160217905550611baa6040518060400160405280600981526020017f6574685f6b6f76616e0000000000000000000000000000000000000000000000815250612428565b60019050611ec3565b6000611bd273146500cfd35b22e4a392fe0adc06de1a1368ed4861124e565b1115611c745773146500cfd35b22e4a392fe0adc06de1a1368ed48600160006101000a81548173ffffffffffffffffffffffffffffffffffffffff021916908373ffffffffffffffffffffffffffffffffffffffff160217905550611c6b6040518060400160405280600b81526020017f6574685f72696e6b656279000000000000000000000000000000000000000000815250612428565b60019050611ec3565b6000611c9373a2998efd205fb9d4b4963afb70778d6354ad3a4161124e565b1115611d355773a2998efd205fb9d4b4963afb70778d6354ad3a41600160006101000a81548173ffffffffffffffffffffffffffffffffffffffff021916908373ffffffffffffffffffffffffffffffffffffffff160217905550611d2c6040518060400160405280600a81526020017f6574685f676f65726c6900000000000000000000000000000000000000000000815250612428565b60019050611ec3565b6000611d54736f485c8bf6fc43ea212e93bbf8ce046c7f1cb47561124e565b1115611db857736f485c8bf6fc43ea212e93bbf8ce046c7f1cb475600160006101000a81548173ffffffffffffffffffffffffffffffffffffffff021916908373ffffffffffffffffffffffffffffffffffffffff16021790555060019050611ec3565b6000611dd77320e12a1f859b3feae5fb2a0a32c18f5a65555bbf61124e565b1115611e3b577320e12a1f859b3feae5fb2a0a32c18f5a65555bbf600160006101000a81548173ffffffffffffffffffffffffffffffffffffffff021916908373ffffffffffffffffffffffffffffffffffffffff16021790555060019050611ec3565b6000611e5a7351efaf4c8b3c9afbd5ab9f4bbc82784ab6ef8faa61124e565b1115611ebe577351efaf4c8b3c9afbd5ab9f4bbc82784ab6ef8faa600160006101000a81548173ffffffffffffffffffffffffffffffffffffffff021916908373ffffffffffffffffffffffffffffffffffffffff16021790555060019050611ec3565b600090505b90565b60008073ffffffffffffffffffffffffffffffffffffffff16600160009054906101000a900473ffffffffffffffffffffffffffffffffffffffff1673ffffffffffffffffffffffffffffffffffffffff161480611f4e57506000611f4c600160009054906101000a900473ffffffffffffffffffffffffffffffffffffffff1661124e565b145b15611f5f57611f5d6000611259565b505b600160009054906101000a900473ffffffffffffffffffffffffffffffffffffffff1673ffffffffffffffffffffffffffffffffffffffff166338cc48316040518163ffffffff1660e01b8152600401602060405180830381600087803b158015611fc957600080fd5b505af1158015611fdd573d6000803e3d6000fd5b505050506040513d6020811015611ff357600080fd5b810190808051906020019092919050505073ffffffffffffffffffffffffffffffffffffffff166000809054906101000a900473ffffffffffffffffffffffffffffffffffffffff1673ffffffffffffffffffffffffffffffffffffffff161461213c57600160009054906101000a900473ffffffffffffffffffffffffffffffffffffffff1673ffffffffffffffffffffffffffffffffffffffff166338cc48316040518163ffffffff1660e01b8152600401602060405180830381600087803b1580156120c157600080fd5b505af11580156120d5573d6000803e3d6000fd5b505050506040513d60208110156120eb57600080fd5b81019080805190602001909291905050506000806101000a81548173ffffffffffffffffffffffffffffffffffffffff021916908373ffffffffffffffffffffffffffffffffffffffff1602179055505b60008060009054906101000a900473ffffffffffffffffffffffffffffffffffffffff1673ffffffffffffffffffffffffffffffffffffffff16632ef3accc86856040518363ffffffff1660e01b81526004018080602001838152602001828103825284818151815260200191508051906020019080838360005b838110156121d25780820151818401526020810190506121b7565b50505050905090810190601f1680156121ff5780820380516001836020036101000a031916815260200191505b509350505050602060405180830381600087803b15801561221f57600080fd5b505af1158015612233573d6000803e3d6000fd5b505050506040513d602081101561224957600080fd5b81019080805190602001909291905050509050823a02670de0b6b3a76400000181111561227c576000801b915050612421565b606061228785612442565b90506000809054906101000a900473ffffffffffffffffffffffffffffffffffffffff1673ffffffffffffffffffffffffffffffffffffffff1663c55c1cb68360008985896040518663ffffffff1660e01b8152600401808581526020018060200180602001848152602001838103835286818151815260200191508051906020019080838360005b8381101561232b578082015181840152602081019050612310565b50505050905090810190601f1680156123585780820380516001836020036101000a031916815260200191505b50838103825285818151815260200191508051906020019080838360005b83811015612391578082015181840152602081019050612376565b50505050905090810190601f1680156123be5780820380516001836020036101000a031916815260200191505b5096505050505050506020604051808303818588803b1580156123e057600080fd5b505af11580156123f4573d6000803e3d6000fd5b50505050506040513d602081101561240b57600080fd5b8101908080519060200190929190505050925050505b9392505050565b806002908051906020019061243e929190612885565b5050565b606061244c6124c2565b612454612905565b612460816104006124ce565b61246981612518565b60008090505b83518110156124ab5761249e84828151811061248757fe5b60200260200101518361252690919063ffffffff16565b808060010191505061246f565b506124b58161254b565b8060000151915050919050565b60405180590338823950565b60008190506000602082816124df57fe5b06146124f857602081816124ef57fe5b06602003810190505b808360200181815250506040518084526000815281810160405250505050565b612523816004612559565b50565b612533826002835161257a565b61254681836126ba90919063ffffffff16565b505050565b612556816007612559565b50565b612576601f60058360ff16901b178361276590919063ffffffff16565b5050565b601781116125a6576125a18160058460ff16901b60ff16178461276590919063ffffffff16565b6126b5565b60ff81116125e7576125cb601860058460ff16901b178461276590919063ffffffff16565b6125e1816001856127a59092919063ffffffff16565b506126b4565b61ffff81116126295761260d601960058460ff16901b178461276590919063ffffffff16565b612623816002856127a59092919063ffffffff16565b506126b3565b63ffffffff811161266d57612651601a60058460ff16901b178461276590919063ffffffff16565b612667816004856127a59092919063ffffffff16565b506126b2565b67ffffffffffffffff81116126b157612699601b60058460ff16901b178461276590919063ffffffff16565b6126af816008856127a59092919063ffffffff16565b505b5b5b5b5b505050565b6126c2612905565b826020015183600001515183510111156126f2576126f18360026126eb8660200151865161280c565b02612828565b5b60008060008451905085518051602081830101945086518101825260208701935050505b602081106127395781518352602083019250602082019150602081039050612716565b60006001826020036101000a039050801983511681855116818117865250508694505050505092915050565b8160200151600183600001515101111561278b5761278a826002846020015102612828565b5b815180516020818301018381536001820183525050505050565b6127ad612905565b8360200151846000015151830111156127db576127da8460026127d487602001518661280c565b02612828565b5b60006001836101000a0390508451805184818301018684198251161781528582018352505050849150509392505050565b60008183111561281e57829050612822565b8190505b92915050565b60608260000151905061283b83836124ce565b61284583826126ba565b50505050565b6040518060200160405280600081525090565b60405180608001604052806004905b606081526020019060019003908161286d5790505090565b828054600181600116156101000203166002900490600052602060002090601f016020900481019282601f106128c657805160ff19168380011785556128f4565b828001600101855582156128f4579182015b828111156128f35782518255916020019190600101906128d8565b5b509050612901919061291f565b5090565b604051806040016040528060608152602001600081525090565b61294191905b8082111561293d576000816000905550600101612925565b5090565b9056fe50726f7661626c65207175657279207761732073656e742c207374616e64696e6720627920666f7220616e737765722e2e2ea265627a7a7231582015f6be39d9ec72a2a1d3ed2edfc5d909a5b597f30866581a58526160b0cea18064736f6c634300050c003250726f7661626c65207175657279207761732073656e742c207374616e64696e6720627920666f7220616e737765722e2e2e",
  "source": "pragma solidity 0.5.12;\nimport \"./provableAPI.sol\";\nimport \"./Ownable.sol\";\n\ncontract Coinflip is usingProvable, Ownable {\n\n    struct CoinflipSession {\n        uint betAmount;\n    }\n\n    uint public balance;\n    uint256 constant NUM_RANDOM_BYTES_REQUESTED = 1;\n    uint256 public latestNumber;\n\n    event LogNewProvableQuery(string description);\n    event generateRandomNumber(uint256 randomNumber);\n    event betTaken(uint betAmount);\n    event winPayout(uint betAmount);\n    event coinFlipped(uint result);\n\n    constructor() public {\n        update();\n    }\n\n    \n    mapping (address => CoinflipSession) private session;\n\n    modifier costs(uint cost){\n        require(msg.value >= cost);\n        _;\n    }\n\n    function __callback(bytes32 queryId, string memory _result, bytes memory _proof) public {\n        require(msg.sender == provable_cbAddress());\n\n        uint256 randomNumber = uint256(keccak256(abi.encodePacked(_result))) % 2;\n        latestNumber = randomNumber;\n        emit generateRandomNumber(randomNumber);\n    }\n\n    function update() payable public {\n        uint256 QUERY_EXECUTION_DELAY = 0;\n        uint256 GAS_FOR_CALLBACK = 200000;\n        provable_newRandomDSQuery(\n            QUERY_EXECUTION_DELAY,\n            NUM_RANDOM_BYTES_REQUESTED,\n            GAS_FOR_CALLBACK\n        );\n        emit LogNewProvableQuery(\"Provable query was sent, standing by for answer...\");\n    }\n\n    function getLatestRandom() public view returns(uint256) {\n        return latestNumber;\n    }\n\n    function addContractFunds() public payable onlyOwner{\n        balance += msg.value;\n    }\n\n    function intakeToken() public payable costs(1 wei){\n        //require(session[msg.sender] == null || session[msg.sender].betAmount == 0);\n        require(msg.value >= 1 wei);\n        require(balance >= msg.value * 2);\n\n        balance += msg.value;\n        CoinflipSession memory newSession;  \n\n        newSession.betAmount = msg.value;\n\n        address creator = msg.sender;\n        session[creator] = newSession;\n\n        emit betTaken(newSession.betAmount);\n    }\n\n    function flipCoin() public payable returns(uint) {\n        update();\n        uint result = latestNumber;\n        emit coinFlipped(result);\n\n        if (result == 0) {\n            handleWinPayout();\n        }\n        return result;\n    }\n\n    function resetBalance() private {\n        session[msg.sender].betAmount = 0;\n    }\n\n    function handleWinPayout() public payable {\n\n        balance -= session[msg.sender].betAmount *2;\n        uint toTransfer = session[msg.sender].betAmount*2;\n        msg.sender.transfer(toTransfer);\n        \n\n        emit winPayout(session[msg.sender].betAmount * 2);\n\n        resetBalance();\n    }\n   \n    function random() public view returns (uint) {\n        return now % 2;\n    } \n}",
  "sourcePath": "/Users/kpak/Desktop/ethereum/coinFlip2/contracts/Coinflip.sol",
  "compiler": {
    "name": "solc",
    "version": "0.5.12+commit.7709ece9.Emscripten.clang"
  },
  "schemaVersion": "3.2.3",
  "updatedAt": "2020-08-29T18:33:29.812Z",
  "networkType": "ethereum",
  "devdoc": {
    "methods": {
      "__callback(bytes32,string)": {
        "details": "The following `__callback` functions are just placeholders ideally     meant to be defined in child contract when proofs are used.     The function bodies simply silence compiler warnings."
      }
    }
  },
  "userdoc": {
    "methods": {}
  }
}